:1000000010C02AC029C028C027C026C025C024C0CF
:1000100023C022C021C020C01FC01EC01DC01CC0E4
:100020001BC011241FBECFE5D1E0DEBFCDBF10E065
:10003000A0E6B0E0E6EEFCE002C005900D92A63727
:10004000B107D9F710E0A6E7B0E001C01D92AC37C8
:10005000B107E1F7DBD045C6D3CF282FD19898E080
:1000600080E032E03A95F1F700C0D09835E03A955B
:10007000F1F70000880FC9998160D09A32E03A9573
:10008000F1F700C0915069F7211101C0D19A92E0B7
:100090009A95F1F700C0D09838E03A95F1F7D09AE8
:1000A00092E09A95F1F700C0D198089598E022E087
:1000B0002A95F1F700C087FF02C0D19801C0D19AFC
:1000C000880F22E02A95F1F700C0D09825E02A9504
:1000D000F1F70000D09A915051F7D19885E08A95B8
:1000E000F1F70000D09895E09A95F1F7000089B3F8
:1000F000D09A22E02A95F1F700C086958170089584
:10010000D19AD09A82E08A95F1F700C0D09882E027
:100110008A95F1F700C0D198089598E025E02A95D6
:10012000F1F7000087FF02C0D19801C0D19A880F73
:1001300025E02A95F1F70000D0982AE02A95F1F7FA
:1001400000C0D09A915051F7D1988AE08A95F1F782
:1001500000C0D0989AE09A95F1F700C089B3D09A80
:1001600025E02A95F1F70000869581700895D19ACF
:10017000D09A85E08A95F1F70000D09885E08A95BD
:10018000F1F70000D1980895A1E0B0E0E9ECF0E0CB
:1001900009C1142F9BB39C7F9BBB9AB39C7F9ABBD6
:1001A000D19A95E09A95F1F70000D09A880F69836B
:1001B000B4DF698181110BC0862FAFDF811107C0C9
:1001C000812FABDF811103C0D2DF80E002C0CFDF1F
:1001D00081E02196E3E002C11F93CF93DF93EB010F
:1001E000FB01E05AFF4F1081D82FD06240E060E061
:1001F0008D2FCADF4C2F42954170412B409569E00D
:100200008D2FC2DFDF91CF911F910895A0E0B0E064
:10021000EBE0F1E0BEC080E886BD16BC68E070E0AF
:1002200082E090E0D9DF68E070E081E090E0D4DF28
:1002300068E070E080E090E0CFDF8BB38C7F8BBB19
:100240008AB38C7F8ABBC0E0D0E081E7E82E80E0F3
:10025000F82E0AE010E094E6C92ED12CD19A82E063
:100260008A95F1F700C0D09A84EB20DF81112CC071
:1002700087E01CDF811128C0D09892E09A95F1F7B1
:1002800000C0D19A82E08A95F1F700C0D09A85EB40
:100290000DDF811119C0E1DEA82E80E0DEDEB82E70
:1002A00081E0DBDE2DDF6A2D70E07B2980E090E0CD
:1002B0009AD12AE037ED43EA5CE323D223E333E922
:1002C00048E853E497D007C01BDF20E030E0A901E5
:1002D000CA01B901F4D04B015C01DF93CF93FF92C7
:1002E000EF927AD220E030E040E151E4C501B40160
:1002F00008D220E030E040EA50E4E1D020E030E0F5
:1003000040E052E478D043D1EB01CB01B80127D0D3
:100310005B01BC0182E090E05FDFC501B8011FD046
:10032000BC0181E090E058DF0F900F900F900F908C
:10033000C436D10538F0CE01B60111D0CB01B801D9
:100340000ED002C080E190E0BC0180E090E044DF8C
:100350008FEC97E00197F1F700C000007FCFAA1B58
:10036000BB1B51E107C0AA1FBB1FA617B70710F0A0
:10037000A61BB70B881F991F5A95A9F780959095D2
:10038000BC01CD0108952F923F924F925F926F92E0
:100390007F928F929F92AF92BF92CF92DF92EF9215
:1003A000FF920F931F93CF93DF93CDB7DEB7CA1B96
:1003B000DB0B0FB6F894DEBF0FBECDBF09942A88C1
:1003C000398848885F846E847D848C849B84AA8469
:1003D000B984C884DF80EE80FD800C811B81AA81F6
:1003E000B981CE0FD11D0FB6F894DEBF0FBECDBFC1
:1003F000ED0108955058BB27AA270ED048C139D126
:1004000030F03ED120F031F49F3F11F41EF42EC1A4
:100410000EF4E095E7FB24C1E92F4AD180F3BA1727
:10042000620773078407950718F071F49EF562C19F
:100430000EF4E0950B2EBA2FA02D0B01B9019001FF
:100440000C01CA01A0011124FF27591B99F0593F43
:1004500050F4503E68F11A16F040A22F232F342F8B
:100460004427585FF3CF469537952795A795F040D9
:100470005395C9F77EF41F16BA0B620B730B840BEE
:10048000BAF09150A1F0FF0FBB1F661F771F881FA6
:10049000C2F70EC0BA0F621F731F841F48F48795FE
:1004A00077956795B795F7959E3F08F0B3CF9395ED
:1004B000880F08F09927EE0F9795879508950CD02F
:1004C000E6C0DED040F0D5D030F021F45F3F19F027
:1004D000C7C0511110C1CAC0EBD098F39923C9F31A
:1004E0005523B1F3951B550BBB27AA27621773073A
:1004F000840738F09F5F5F4F220F331F441FAA1FEE
:10050000A9F333D00E2E3AF0E0E830D091505040AD
:10051000E695001CCAF729D0FE2F27D0660F771F5B
:10052000881FBB1F261737074807AB07B0E809F03D
:10053000BB0B802DBF01FF2793585F4F2AF09E3FD2
:10054000510568F08DC0D7C05F3FECF3983EDCF3F7
:10055000869577956795B795F7959F5FC9F7880F4B
:10056000911D9695879597F90895E1E0660F771F9D
:10057000881FBB1F621773078407BA0720F0621B2E
:10058000730B840BBA0BEE1F88F7E095089598D093
:1005900088F09F5790F0B92F9927B751A0F0D1F06C
:1005A000660F771F881F991F1AF0BA95C9F712C0F6
:1005B000B13081F09FD0B1E008959CC0672F782FB3
:1005C0008827B85F39F0B93FCCF386957795679562
:1005D000B395D9F73EF490958095709561957F4FCE
:1005E0008F4F9F4F0895E89409C097FB3EF4909574
:1005F0008095709561957F4F8F4F9F4F9923A9F0FC
:10060000F92F96E9BB279395F6958795779567958A
:10061000B795F111F8CFFAF4BB0F11F460FF1BC0CE
:100620006F5F7F4F8F4F9F4F16C0882311F096E961
:1006300011C0772321F09EE8872F762F05C066230F
:1006400071F096E8862F70E060E02AF09A95660FC8
:10065000771F881FDAF7880F9695879597F9089581
:1006600097F99F6780E870E060E008959FEF80EC65
:10067000089500240A941616170618060906089508
:1006800000240A9412161306140605060895092E6E
:100690000394000C11F4882352F0BB0F40F4BF2BDD
:1006A00011F460FF04C06F5F7F4F8F4F9F4F08951D
:1006B00057FD9058440F551F59F05F3F71F0479513
:1006C000880F97FB991F61F09F3F79F087950895F8
:1006D000121613061406551FF2CF4695F1DF08C017
:1006E000161617061806991FF1CF86957105610534
:1006F00008940895E894BB2766277727CB0197F9DC
:1007000008950AD0C4CFB5DF28F0BADF18F09523DA
:1007100009F0A6CFABCFEFCFCBDFA8F39923D9F366
:100720005523C9F3950F50E0551FAA27EE27FF2741
:10073000BB2700240894679520F4E20FF31FB41F31
:100740000A1E220F331F441FAA1F6695A9F777952B
:1007500030F4F30FB41F0A1E121E08F46395330F12
:10076000441FAA1F221F769599F7879520F4B40F8E
:100770000A1E121E631F440FAA1F221F331F8695D5
:10078000A9F7862F712D602D11249F5750408AF0B4
:10079000E1F088234AF0EE0FFF1FBB1F661F771F93
:1007A000881F91505040A9F79E3F510570F058CFD7
:1007B000A2CF5F3FECF3983EDCF386957795679583
:1007C000B795F795E7959F5FC1F7FE2B880F911DB1
:1007D0009695879597F90895A0E0B0E0E1EFF3E0F2
:1007E000E2CDFE01359661917191AF018091780063
:1007F0009091790002D0E2E0F2CDACE0B0E0E2E02E
:10080000F4E0C1CD7C016B018A01FC0117821682E4
:10081000838181FFB0C1CE0101964C01F701938124
:10082000F60193FD859193FF81916F01882309F46F
:100830009EC1853239F493FD859193FF81916F01BB
:10084000853221F4B70190E0B1D1E8CF512C312CA1
:1008500020E02032A0F48B3269F030F4803259F07D
:10086000833269F420612CC08D3239F0803339F441
:10087000216026C02260246023C0286021C027FD9B
:1008800027C030ED380F3A3078F426FF06C0852DAA
:100890006AE01ED2582E530E13C0832D6AE018D280
:1008A000382E330E20620CC08E3221F426FD5FC13B
:1008B000206406C08C3611F4206802C0883641F4EA
:1008C000F60193FD859193FF81916F018111C1CF55
:1008D000982F9F7D9554933028F40C5F1F4FFFE3B2
:1008E000F9830DC0833631F0833771F0833509F019
:1008F00057C021C0F801808189830E5F1F4F4424B7
:100900004394512C540114C03801F2E06F0E711C55
:10091000F801A080B18026FF03C0652D70E002C001
:100920006FEF7FEFC5012C8736D12C0183012C8519
:100930002F77222E16C03801F2E06F0E711CF801DD
:10094000A080B18026FF03C0652D70E002C06FEF6C
:100950007FEFC5012C8714D12C012C852068222E15
:10096000830123FC19C0832D90E048165906A0F49A
:10097000B70180E290E01AD13A94F5CFF50127FC57
:10098000859127FE81915F01B70190E00FD1311071
:100990003A94F1E04F1A51084114510479F7DEC03E
:1009A000843611F0893631F5F80127FF07C06081E0
:1009B0007181828193810C5F1F4F08C060817181BA
:1009C000882777FD8095982F0E5F1F4F2F76B22EC8
:1009D00097FF09C090958095709561957F4F8F4FD7
:1009E0009F4F2068B22E2AE030E0A40111D1A82E3A
:1009F000A81843C0853729F42F7EB22E2AE030E0B4
:100A000025C0F22FF97FBF2E8F36C1F018F488353C
:100A100079F0ADC0803719F0883721F0A8C02F2FAA
:100A20002061B22EB4FE0DC08B2D8460B82E09C09B
:100A300024FF0AC09F2F9660B92E06C028E030E040
:100A400005C020E130E002C020E132E0F801B7FE4D
:100A500007C060817181828193810C5F1F4F06C046
:100A60006081718180E090E00E5F1F4FA401D0D0C3
:100A7000A82EA818FB2DFF77BF2EB6FE0BC02B2D7E
:100A80002E7FA51450F4B4FE0AC0B2FC08C02B2D72
:100A90002E7E05C07A2C2B2D03C07A2C01C0752C1C
:100AA00024FF0DC0FE01EA0DF11D8081803311F499
:100AB000297E09C022FF06C07394739404C0822F5C
:100AC000867809F0739423FD12C020FF06C05A2CCB
:100AD000731418F4530C5718732C731460F4B70183
:100AE00080E290E02C8762D073942C85F6CF73144B
:100AF00010F4371801C0312C24FF11C0B70180E376
:100B000090E02C8753D02C8522FF16C021FF03C014
:100B100088E590E002C088E790E0B7010CC0822F22
:100B2000867851F021FD02C080E201C08BE227FDF2
:100B30008DE2B70190E03AD0A51430F4B70180E31C
:100B400090E034D05A94F8CFAA94F401EA0DF11D44
:100B50008081B70190E02AD0A110F6CF332009F4AC
:100B60005DCEB70180E290E021D03A94F7CFF70153
:100B70008681978102C08FEF9FEF2C96E2E11FCC18
:100B8000FC010590615070400110D8F78095909558
:100B90008E0F9F1F0895FC0161507040019001105D
:100BA000D8F7809590958E0F9F1F08950F931F93F0
:100BB000CF93DF93182F092FEB018B8181FD03C0A9
:100BC0008FEF9FEF20C082FF10C04E815F812C818C
:100BD0003D81421753077CF4E881F9819F012F5F23
:100BE0003F4F39832883108306C0E885F985812F1C
:100BF0000995892B29F72E813F812F5F3F4F3F8336
:100C00002E83812F902FDF91CF911F910F91089507
:100C1000FA01AA27283061F1203191F1E8946F930D
:100C20006E7F6E5F7F4F8F4F9F4FAF4FB1E040D0D1
:100C3000B4E03ED0670F781F891F9A1FA11D680F6F
:100C4000791F8A1F911DA11D6A0F711D811D911DA4
:100C5000A11D22D009F468943F91062E000C301992
:100C6000000C000C3019305D3193CEF6CF010895A1
:100C7000462F4770405D4193B3E00FD0C9F7F6CFE0
:100C8000462F4F70405D4A3318F0495D31FD4052A8
:100C9000419302D0A9F7EACFB4E0A695979587953E
:100CA00077956795BA95C9F700976105710508951D
:100CB0009B01AC010A2E06945795479537952795C9
:100CC000BA95C9F7620F731F841F951FA01D089561
:100CD000002480FD060E660F11F08695D1F7802D59
:060CE0000895F894FFCF17
:100CE600EEC0BAF2D4767EC2FED6DE7C38F83E1E60
:060CF6000025640A000065
:00000001FF
